:020000040800F2
:10000000008001206D1B00080D1B00080F1B00085D
:10001000111B0008131B0008151B0008000000003E
:10002000000000000000000000000000171B000896
:10003000191B0008000000001B1B00081D1B000806
:10004000BD1B0008BD1B0008BD1B0008BD1B000830
:10005000BD1B0008BD1B0008BD1B0008BD1B000820
:10006000BD1B0008BD1B0008BD1B0008BD1B000810
:10007000BD1B0008BD1B0008BD1B0008BD1B000800
:10008000BD1B0008BD1B0008BD1B000800000000D0
:10009000000000000000000000000000BD1B000880
:1000A000BD1B0008BD1B0008BD1B0008BD1B0008D0
:1000B000BD1B0008BD1B0008BD1B0008BD1B0008C0
:1000C000BD1B0008BD1B0008BD1B0008BD1B0008B0
:1000D000BD1B0008BD1B0008BD1B00080000000080
:1000E000BD1B0008BD1B0008BD1B00080000000070
:1000F000000000000000000000000000BD1B000820
:1001000000000000BD1B0008BD1B0008BD1B00084F
:1001100000000000000000000000000000000000DF
:10012000BD1B0008BD1B0008BD1B0008BD1B00084F
:10013000BD1B0008000000000000000000000000DF
:10014000000000000000000000000000BD1B0008CF
:10015000BD1B0008BD1B0008BD1B0008BD1B00081F
:10016000BD1B0008BD1B00080000000000000000CF
:10017000000000000000000000000000000000007F
:1001800000000000BD1B000800000000000000008F
:04019000BD1B00088B
:1001940010B5054C237833B9044B13B10448AFF3BD
:1001A40000800123237010BD0C000020000000001B
:1001B400181C000808B5034B1BB103490348AFF3EF
:1001C400008008BD0000000010000020181C00087A
:1001D40081F0004102E000BF83F0004330B54FEAF4
:1001E40041044FEA430594EA050F08BF90EA020F61
:1001F4001FBF54EA000C55EA020C7FEA645C7FEAF4
:10020400655C00F0E2804FEA5454D4EB5555B8BF16
:100214006D420CDD2C4480EA020281EA030382EA87
:10022400000083EA010180EA020281EA0303362D19
:1002340088BF30BD11F0004F4FEA01314FF4801CEC
:100244004CEA113102D0404261EB410113F0004FFE
:100254004FEA03334CEA133302D0524263EB4303B5
:1002640094EA050F00F0A780A4F10104D5F1200E53
:100274000DDB02FA0EFC22FA05F2801841F10001AE
:1002840003FA0EF2801843FA05F359410EE0A5F182
:1002940020050EF1200E012A03FA0EFC28BF4CF0B3
:1002A400020C43FA05F3C01851EBE37101F0004569
:1002B40007D54FF0000EDCF1000C7EEB00006EEB76
:1002C4000101B1F5801F1BD3B1F5001F0CD3490800
:1002D4005FEA30004FEA3C0C04F101044FEA445257
:1002E40012F5800F80F09A80BCF1004F08BF5FEADE
:1002F400500C50F1000041EB045141EA050130BDBE
:100304005FEA4C0C404141EB010111F4801FA4F160
:100314000104E9D191F0000F04BF01460020B1FAB5
:1003240081F308BF2033A3F10B03B3F120020CDAED
:100334000C3208DD02F1140CC2F10C0201FA0CF0CB
:1003440021FA02F10CE002F11402D8BFC2F1200C30
:1003540001FA02F120FA0CFCDCBF41EA0C019040E6
:10036400E41AA2BF01EB0451294330BD6FEA04042F
:100374001F3C1CDA0C340EDC04F11404C4F120021A
:1003840020FA04F001FA02F340EA030021FA04F32C
:1003940045EA030130BDC4F10C04C4F1200220FA83
:1003A40002F001FA04F340EA0300294630BD21FAC1
:1003B40004F0294630BD94F0000F83F4801306BF87
:1003C40081F480110134013D4EE77FEA645C18BF7B
:1003D4007FEA655C29D094EA050F08BF90EA020F12
:1003E40005D054EA000C04BF1946104630BD91EA0A
:1003F400030F1EBF0021002030BD5FEA545C05D10D
:100404004000494128BF41F0004130BD14F580044B
:100414003CBF01F5801130BD01F0004545F0FE41BF
:1004240041F470014FF0000030BD7FEA645C1ABFF4
:10043400194610467FEA655C1CBF0B46024650EA2B
:10044400013406BF52EA033591EA030F41F4002157
:1004540030BD00BF90F0000F04BF0021704730B5DD
:100464004FF4806404F132044FF000054FF00001B2
:1004740050E700BF90F0000F04BF0021704730B573
:100484004FF4806404F1320410F0004548BF404248
:100494004FF000013EE700BF42004FEAE2014FEA9D
:1004A40031014FEA02701FBF12F07F4393F07F4F78
:1004B40081F06051704792F0000F14BF93F07F4FAA
:1004C400704730B54FF4607401F0004521F00041ED
:1004D40020E700BF50EA010208BF704730B54FF073
:1004E40000050AE050EA010208BF704730B511F078
:1004F400004502D5404261EB41014FF4806404F1B0
:1005040032045FEA915C3FF4DCAE4FF003025FEA31
:10051400DC0C18BF03325FEADC0C18BF033202EBB9
:10052400DC02C2F1200300FA03FC20FA02F001FA13
:1005340003FE40EA0E0021FA02F11444C1E600BFB2
:1005440070B54FF0FF0C4CF4E06C1CEA11541DBF65
:100554001CEA135594EA0C0F95EA0C0F00F0DEF830
:100564002C4481EA030621EA4C5123EA4C5350EA15
:10057400013518BF52EA033541F4801143F4801366
:1005840038D0A0FB02CE4FF00005E1FB02E506F0F7
:100594000042E0FB03E54FF00006E1FB03569CF04C
:1005A400000F18BF4EF0010EA4F1FF04B6F5007F52
:1005B40064F5407404D25FEA4E0E6D4146EB0606C4
:1005C40042EAC62141EA55514FEAC52040EA5E504D
:1005D4004FEACE2EB4F1FD0C88BFBCF5E06F1ED8F7
:1005E400BEF1004F08BF5FEA500E50F1000041EB2E
:1005F400045170BD06F0004646EA010140EA0200DB
:1006040081EA0301B4EB5C04C2BFD4EB0C0541EAFC
:10061400045170BD41F480114FF0000E013C00F311
:10062400AB8014F1360FDEBF002001F0004170BD35
:10063400C4F10004203C35DA0C341BDC04F114044E
:10064400C4F1200500FA05F320FA04F001FA05F2DA
:1006540040EA020001F0004221F0004110EBD370A7
:1006640021FA04F642EB06015EEA430E08BF20EAD3
:10067400D37070BDC4F10C04C4F1200500FA04F376
:1006840020FA05F001FA04F240EA020001F0004108
:1006940010EBD37041F100015EEA430E08BF20EA7B
:1006A400D37070BDC4F1200500FA05F24EEA020EC3
:1006B40020FA04F301FA05F243EA020321FA04F0F2
:1006C40001F0004121FA04F220EA020000EBD370A9
:1006D4005EEA430E08BF20EAD37070BD94F0000FA9
:1006E4000FD101F00046400041EB010111F4801FDD
:1006F40008BF013CF7D041EA060195F0000F18BF8E
:10070400704703F00046520043EB030313F4801FC9
:1007140008BF013DF7D043EA0603704794EA0C0F83
:100724000CEA135518BF95EA0C0F0CD050EA410699
:1007340018BF52EA4306D1D181EA030101F0004116
:100744004FF0000070BD50EA410606BF104619463E
:1007540052EA430619D094EA0C0F02D150EA01364A
:1007640013D195EA0C0F05D152EA03361CBF10468B
:1007740019460AD181EA030101F0004141F0FE412A
:1007840041F470014FF0000070BD41F0FE4141F4AE
:10079400780170BD70B54FF0FF0C4CF4E06C1CEAAE
:1007A40011541DBF1CEA135594EA0C0F95EA0C0F63
:1007B40000F0A7F8A4EB050481EA030E52EA03351E
:1007C4004FEA013100F088804FEA03334FF080553F
:1007D40045EA131343EA12634FEA022245EA11156C
:1007E40045EA10654FEA00260EF000419D4208BF1D
:1007F400964244F1FD0404F5407402D25B084FEACA
:100804003202B61A65EB03055B084FEA32024FF475
:1008140080104FF4002CB6EB020E75EB030E22BFD2
:10082400B61A754640EA0C005B084FEA3202B6EB92
:10083400020E75EB030E22BFB61A754640EA5C0041
:100844005B084FEA3202B6EB020E75EB030E22BFD1
:10085400B61A754640EA9C005B084FEA3202B6EBD2
:10086400020E75EB030E22BFB61A754640EADC0091
:1008740055EA060E18D04FEA051545EA16754FEAF3
:1008840006164FEAC30343EA52734FEAC2025FEA11
:100894001C1CC0D111F4801F0BD141EA00014FF0A0
:1008A40000004FF0004CB6E711F4801F04BF014371
:1008B4000020B4F1FD0C88BFBCF5E06F3FF6AFAE8D
:1008C400B5EB030C04BFB6EB020C5FEA500C50F11D
:1008D400000041EB045170BD0EF0004E4EEA1131A0
:1008E40014EB5C04C2BFD4EB0C0541EA045170BDA7
:1008F40041F480114FF0000E013C90E645EA060EEB
:100904008DE60CEA135594EA0C0F08BF95EA0C0F18
:100914003FF43BAF94EA0C0F0AD150EA01347FF460
:1009240034AF95EA0C0F7FF425AF104619462CE737
:1009340095EA0C0F06D152EA03353FF4FDAE10469A
:10094400194622E750EA410618BF52EA43067FF4EB
:10095400C5AE50EA41047FF40DAF52EA43057FF47B
:10096400EBAE12E74FEA4102B2F1E04324BFB3F524
:10097400001CDCF1FE5C0DD901F0004C4FEAC00212
:100984004CEA5070B2F1004F40EB830008BF20F0F6
:100994000100704711F0804F21D113F13872BCBFB0
:1009A40001F00040704741F480114FEA5252C2F105
:1009B4001802C2F1200C10FA0CF320FA02F018BF4E
:1009C40040F001004FEAC1234FEAD32303FA0CFCA1
:1009D40040EA0C0023FA02F34FEA4303CCE77FEA30
:1009E400625307D150EA01331EBF4FF0FE4040F47A
:1009F4004000704701F0004040F0FE4040F4000029
:100A0400704700BF53B94AB9002908BF00281CBF6A
:100A14004FF0FF314FF0FF3000F07AB9ADF1080C20
:100A24006DE904CE00F006F8DDF804E0DDE9022308
:100A340004B070472DE9F0478C460D460446089EE5
:100A4400002B51D18A4217466DD9B2FA82FEBEF10B
:100A5400000F0BD0CEF1200C01FA0EF520FA0CFC9D
:100A640002FA0EF74CEA050C00FA0EF44FEA174AA4
:100A7400250CBCFBFAF81FFA87F90AFB18CC45EAE7
:100A84000C4508FB09F3AB420AD9ED1908F1FF3212
:100A940080F02381AB4240F22081A8F102083D445A
:100AA400ED1AA4B2B5FBFAF00AFB105544EA05446A
:100AB40000FB09F9A14509D9E41900F1FF3380F0DD
:100AC4000A81A14540F2078102383C44A4EB0904A1
:100AD40040EA08400021002E61D024FA0EF40023DD
:100AE40034607360BDE8F0878B4207D9002E54D080
:100AF400002186E821000846BDE8F087B3FA83F1B7
:100B0400002940F08E80AB4202D3824200F2FA8088
:100B1400841A65EB03050120AC46002E3FD086E81D
:100B24001010BDE8F08712B90127B7FBF2F7B7FA46
:100B340087FEBEF1000F34D1EB1B3A0C1FFA87FC81
:100B44000121B3FBF2F8250C02FB183345EA0345F7
:100B54000CFB08F3AB4207D9ED1908F1FF3002D2C0
:100B6400AB4200F2D1808046ED1AA3B2B5FBF2F09D
:100B740002FB105543EA05440CFB00FCA44507D9CD
:100B8400E41900F1FF3302D2A44500F2B8801846FC
:100B9400A4EB0C0440EA08409DE731463046BDE82A
:100BA400F087CEF1200405FA0EF307FA0EF720FAC7
:100BB40004F83A0C25FA04F448EA0308B4FBF2F109
:100BC4004FEA184502FB11441FFA87FC45EA044525
:100BD40001FB0CF3AB4200FA0EF409D9ED1901F153
:100BE400FF3080F08A80AB4240F2878002393D4476
:100BF400EB1A1FFA88F5B3FBF2F002FB103345EA57
:100C0400034500FB0CF3AB4207D9ED1900F1FF38A3
:100C14006FD2AB426DD902383D44EB1A40EA014130
:100C24008FE7C1F1200722FA07F88B4005FA01F497
:100C340048EA030320FA07FE4FEA134CFD404EEA4C
:100C4400040EB5FBFCF94FEA1E440CFB19551FFAC0
:100C540083F844EA054509FB08F4AC4202FA01F2C0
:100C640000FA01FA08D9ED1809F1FF3043D2AC4279
:100C740041D9A9F102091D442D1B1FFA8EFEB5FBB3
:100C8400FCF00CFB10554EEA054400FB08F8A045A7
:100C940007D9E41800F1FF3529D2A04527D9023835
:100CA4001C4440EA0940A4EB0804A0FB02894C451B
:100CB400C6464D4615D312D056B1BAEB0E0364EBBB
:100CC400050404FA07F7CB401F43CC403760746037
:100CD4000021BDE8F0871846F8E69046E0E6C245F4
:100CE400EAD2B8EB020E69EB03050138E4E72846C3
:100CF400D7E7404691E78146BEE7014678E70238E8
:100D04003C4445E7084608E7A8F102083D442BE7C0
:100D1400704700BF38B50E4A0E4B054618784FF49D
:100D24007A73B3FBF0F31068B0FBF3F000F096FABB
:100D3400044658B90F2D09D8024629464FF0FF3012
:100D440000F058FA044B20461D6038BD012038BD20
:100D540008000020000000200400002008B50B4B10
:100D64001A6842F400721A601A6842F480621A60C7
:100D74001A6842F480721A60032000F029FA0020F5
:100D8400FFF7C8FF00F072FE002008BD003C0240DF
:100D9400034A044B11681B780B441360704700BF6F
:100DA4002800002000000020014B1868704700BF95
:100DB4002800002038B50446002800F09B80056C0C
:100DC40025B900F06FFE656484F83C50236CDB06A3
:100DD40000F18E80236C23F4885323F0020343F044
:100DE40002032364444B5A6822F440325A605A681E
:100DF40061680A435A60236821695A6822F4807240
:100E04005A605A6842EA01225A605A68A16822F07C
:100E140040725A605A680A435A609A68E16822F438
:100E240000629A609A680A439A603449A26A8A42C4
:100E340052D0996821F07061996099680A439A6068
:100E44009A68E16A22F040529A609A680A439A606A
:100E54009A68217E22F002029A609A6842EA41026C
:100E64009A6094F82020002A3ED05A68616A42F4BD
:100E740000625A605A6822F460425A605A68013922
:100E840042EA41325A60DA6AE16922F47002DA62B3
:100E9400DA6A013942EA0152DA629A6894F8301047
:100EA40022F400729A609A6842EA41229A609A682F
:100EB400616922F480629A609A68002042EA812281
:100EC4009A606064236C23F0030343F001032364FA
:100ED400002384F83C3038BD9A6822F070629A602E
:100EE4009A6822F04052B2E75A6822F40062C9E7D5
:100EF4000120EDE7012038BD002301400100000F6F
:100F040082B00023019390F83C30012B4ED0012392
:100F140080F83C3003689A68D10705D59A68D207EF
:100F240014D4002002B070479A68214942F00102AB
:100F34009A60204A1268B2FBF1F202EB420201927B
:100F4400019A002AEAD0019A013AF8E7026C22F4E5
:100F5400E06222F0010242F4807202645A68510590
:100F640041BF026C22F4405242F480520264026C8B
:100F740012F480521CBF426C22F00602426400222A
:100F840080F83C206FF022021A600B4A5268D206A5
:100F940008D1986810F04050C3D19A6842F080425A
:100FA4009A60BFE7054A9342BBD1F2E70220B9E752
:100FB40040420F00080000200023014000200140AF
:100FC40090F83C30012B17D0012380F83C300368A3
:100FD4009A6822F001029A609B68DB0707D4036CCD
:100FE40023F4885323F0010343F001030364002333
:100FF40080F83C30184670470220704703689A68AE
:1010040070B5560504460D460BD59B68D80508D522
:10101400236C43F020032364002384F83C30012034
:1010240070BDFFF7C1FE064623681A6892070CD507
:101034006FF012021A60226C42F4007222649A6801
:1010440012F0405F13D0002070BD691CEDD045B98B
:10105400236C43F004032364002384F83C3003200E
:1010640070BDFFF7A1FE801B8542DDD2F0E7227E32
:10107400002AE8D1DA6A12F4700F02D09B685B058B
:10108400E1D4236C23F480732364206C10F4805027
:10109400D9D1236C43F00103236470BD0368D86C79
:1010A40070470000F7B50023019390F83C30012B02
:1010B40000F083800D6804688A680123092D80F894
:1010C4003C30AEB22AD906EB4603E7681E3B4FF02C
:1010D400070E0EFA03FE27EA0E07E760E76802FA36
:1010E40003F33B43E3604A68062A4FEA820325D8A8
:1010F4001344676B591F1F238B4027EA0303636361
:10110400626B06FA01F1114361632D4B9C4234D0AA
:10111400002380F83C30184603B0F0BD276905EB86
:1011240045034FF0070E0EFA03FE27EA0E07276168
:10113400276902FA03F33B432361D4E70C2A0ED850
:101144001344216BA3F123021F23934021EA0303D9
:101154002363236B06FA02F21A432263D5E713448E
:10116400E16A413B1F229A4021EA0202E262E26AFA
:1011740006FA03F11143E162C7E7122D04D1114AC3
:10118400536843F480035360A5F11003012BBFD8C7
:101194000C4A5368102D43F400035360B8D10A4B32
:1011A4000A4A1B68B3FBF2F20A2353430193019BDF
:1011B400002BADD0019B013BF8E70220ACE700BF58
:1011C40000200140002301400800002040420F009D
:1011D400074AD36823F4E0631B041B0C43F0BF638A
:1011E400000243F4003300F4E0600343D36070472B
:1011F40000ED00E0174B30B5DC68C4F30224C4F101
:101204000703251D042B28BF0423062D4FF00105D9
:1012140005FA03F303F1FF338CBF033C00241940A8
:10122400A14005FA04F4013C2240002842EA0102EC
:101234004FEA0212ADBF00F1604000F00F00064B10
:1012440000F56140B5BFD2B2D2B21A5480F800237F
:1012540030BD00BF00ED00E014ED00E00138B0F156
:10126400807F0AD2064B074A5860F02182F8231087
:101274000020072298601A6070470120704700BF61
:1012840010E000E000ED00E02DE9F04F85B00B68C0
:10129400DFF89C81644A01934FF001090023019C0B
:1012A40009FA03F707EA0406B74240F0AD804C6838
:1012B40024F0100ABAF1020F16D14FEAD30C00EB56
:1012C4008C0C03F0070BDCF820504FEA8B0B4FF02B
:1012D4000F0E0EFA0BFE25EA0E0E0D6905FA0BF53C
:1012E40045EA0E05CCF820504FEA430C0325D0F80C
:1012F40000B005FA0CF5ED4304F0030E0BEA050B00
:101304000EFA0CFE0AF1FF3A4EEA0B0EBAF1010F87
:101314000095C0F800E015D8D0F808E005EA0E0EF4
:10132400CD6805FA0CFA4AEA0E0EC0F808E0D0F8C7
:1013340004E02EEA0707C4F3001E0EFA03FE4EEA89
:1013440007074760C768009D3D408F6807FA0CF7A0
:101354003D43C560E50057D54FF0000BCDF80CB008
:10136400D8F84470314D47F48047C8F84470D8F831
:10137400447007F480470397039F23F0030707F1A2
:10138400804707F59C3703F0030CD7F808A04FEA11
:101394008C0C4FF00F0E0EFA0CFEA8422AEA0E0E29
:1013A40039D005F58065A84237D005F58065A84297
:1013B40035D005F58065A84233D005F58065A8428F
:1013C40014BF0725042505FA0CF545EA0E05BD6092
:1013D4001568F74314F4803F0CBF3D403543156056
:1013E400556814F4003F0CBF3D4035435560956883
:1013F40014F4801F0CBF3D4035439560D568A402AA
:1014040054BF3D403543D5600133102B7FF447AFC3
:1014140005B0BDE8F08F5D46D5E70125D3E7022589
:10142400D1E70325CFE700BF003C014000000240A4
:10143400003802402DE9F341044618B9012002B0F6
:10144400BDE8F0810368DD0710D42368980758D4F9
:1014540023681A0700F19A8023685B0700F1B880BB
:10146400A269002A40F019810020E8E7A64B9A6897
:1014740002F00C02042A07D09A6802F00C02082A2F
:101484000AD15B68590207D59F4B1B689A03DCD5C8
:101494006368002BD9D1D1E763689B4DB3F5803FD6
:1014A40011D12B6843F480332B60FFF77DFC964DFC
:1014B40006462B689B03C8D4FFF776FC801B642880
:1014C400F7D90320BBE7B3F5A02F04D12B6843F46D
:1014D40080232B60E5E72A6822F480322A602A6898
:1014E40022F480222A60002BDFD1FFF75DFC064640
:1014F4002B689F03A9D5FFF757FC801B6428F7D9F5
:10150400DFE7814B9A6812F00C0F07D09A6802F05B
:101514000C02082A11D15B685E020ED47A4B1A6859
:10152400950702D5E268012A88D11A68216922F058
:10153400F80242EAC1021A608AE7E268734BB2B168
:1015440001221A60FFF730FC6F4D06462B6898079E
:1015540007D52B68226923F0F80343EAC2032B6002
:1015640076E7FFF721FC801B0228EFD9A9E71A6070
:10157400FFF71AFC644D06462B6899077FF568AFA0
:10158400FFF712FC801B0228F6D99AE76269604BC8
:101594007AB101221A60FFF707FC5B4D06466B6FB8
:1015A4009F073FF559AFFFF7FFFB801B0228F6D9D1
:1015B40087E71A60FFF7F8FB534D06466B6F9807F1
:1015C4007FF54AAFFFF7F0FB801B0228F6D978E7D6
:1015D4004D4B1A6C12F0805228D101921A6C42F0D1
:1015E40080521A641B6C03F080530193019B012603
:1015F400484D2B68D9051BD5A368434D012B27D132
:101604002B6F43F001032B67FFF7CEFB3E4D0746DC
:1016140041F288382B6F9B0739D5002E3FF420AF59
:10162400394A136C23F08053136419E70026DFE76B
:101634002B6843F480732B60FFF7B6FB07462B68D7
:10164400DA05D9D4FFF7B0FBC01B0228F7D938E775
:10165400052B04D12B6F43F004032B67D0E72A6FCB
:1016640022F001022A672A6F22F004022A67002B63
:10167400CAD1FFF799FB41F2883807462B6F9807C8
:10168400CBD5FFF791FBC01B4045F7D919E7FFF70E
:101694008BFBC01B4045BDD913E71B4DAB6803F062
:1016A4000C03082B3FF4CAAE1B4E0023022A3360FE
:1016B40034D1FFF779FB07462B6899011ED4226ABF
:1016C400E3691343626A43EA8213E26A43EA026308
:1016D400A26A0D4C5208013A43EA02436B600123AB
:1016E4003360FFF761FB054623689A013FF5BCAE02
:1016F400FFF75AFB401B0228F6D9E2E6FFF754FB3A
:10170400C01B0228D8D9DCE600380240000047425A
:10171400800E47420070004060004742FFF744FBE0
:1017240004462B689B017FF59FAEFFF73DFB001B32
:101734000228F6D9C5E600BF134908B58B6803F043
:101744000C03042B03D0082B03D0104808BD104809
:1017540008BD4A684B68496813F4800314BF0C48F9
:101764000A48C1F3881118BF002302F03F02A1FB0D
:101774000001FFF747F9044B5B68C3F301430133EE
:101784005B00B0FBF3F008BD003802400024F40015
:1017940040787D012DE9F0410D46044610B9012041
:1017A400BDE8F081444B1A6802F00F028A4228D344
:1017B40021688F072DD4C80740D43F4B1A6802F024
:1017C4000F02954266D3226851076CD4130707D5DC
:1017D4003A4A2169936823F4604343EAC10393605E
:1017E400FFF7AAFF354B364A9B68C3F30313D35C58
:1017F400D840344B18600020FFF78CFA0020BDE875
:10180400F081CAB21A701B6803F00F039942C6D163
:10181400CEE72A4B11F0040F1EBF9A6842F4E0523F
:101824009A600E0742BF9A6842F460429A609A68CE
:10183400A06822F0F00202439A60BCE762681F4B82
:10184400012A1DD11B6813F4003FA8D01B4EB368B6
:1018540023F003031343B360FFF7A6FA41F2883879
:101864000746B368626803F00C03B3EB820FA4D09D
:10187400FFF79AFAC01B4045F3D90320BDE8F08175
:10188400911E01291B6802D813F0007FDDE713F0D5
:10189400020FDAE7EAB21A701B6803F00F039D42E5
:1018A4007FF47DAF8FE70549E0688B6823F4E0534C
:1018B40003438B608AE700BF003C024000380240CB
:1018C400301C00080800002030B595B030220021FB
:1018D40008A800F097F90021142203A800F092F957
:1018E40000251C4B01951A6C42F080521A641B6C43
:1018F400194A03F080530193019B0295136823F462
:10190400404343F40043136013680F9503F44043CA
:101914000293029B01230B9310230C93082310932F
:1019240054230224119308A80423139308940E94B7
:101934001294FFF77FFD0F23039321464FF4805346
:1019440003A80494059506930795FFF723FF15B0A4
:1019540030BD00BF0038024000700040BFB5FFF743
:10196400FDF90025FFF7B0FF364B01951A6B364C95
:10197400DFF8F49042F001021A631B6B102703F0A6
:1019840001033A462946019302A8019B00F03AF963
:101994002E4AA5604FF48033012684E80C002046CB
:1019A4002B4BA362E66166612561257684F820509D
:1019B400E562E56084F83050FFF7FCF902A920469F
:1019C400029703960495FFF76DFB224F00264FF014
:1019D40000082046FFF794FA4FF47A712046FFF787
:1019E4000DFB50BB2046FFF759FB1B4DDFED1B6A77
:1019F400286095ED007AB8EE477AC7EE267A9FED17
:101A0400187A67EE877ACDED027A0298FEF744FDE4
:101A140032463B46FEF7E0FB42464B46FEF7BAFE33
:101A24000022104BFEF7DAFBFEF79CFF0290DDED7F
:101A3400027AFCEEE77AC5ED007A2046FFF7C0FA99
:101A4400C7E700BF003802403000002000200140FA
:101A54000100000F00C087407800002000F07F459F
:101A640000404E45000039400000044082B00C4B59
:101A7400002100915A6C42F480425A645A6C02F478
:101A840080420092009A01911A6C42F080521A64CA
:101A94001B6C03F080530193019B02B0704700BF9D
:101AA4000038024010B5044688B01422002103A86F
:101AB40000F0A8F82268124B9A421ED103F58C3329
:101AC400002101915A6C0F4842F480725A645A6C96
:101AD40002F480720192019A02911A6B42F001029F
:101AE4001A631B6B03F001030293029B012303930C
:101AF40003A903230493FFF7C7FB08B010BD00BF7D
:101B040000200140000002407047FEE7FEE7FEE7C8
:101B1400FEE7704770477047FFF73AB90F49D1F8AD
:101B2400883043F47003C1F888300D4B1A680020E4
:101B340042F001021A6098601A6822F0847222F45A
:101B440080321A60074A5A601A6822F480221A60A6
:101B5400D8604FF000638B60704700BF00ED00E079
:101B64000038024010300024DFF834D0002103E0B4
:101B74000C4B5B58435004310B480C4B42189A42AF
:101B8400F6D30B4A02E0002342F8043B094B9A4285
:101B9400F9D3FFF7C3FF00F011F8FFF7DFFE70473A
:101BA40000800120501C0008000000200C000020D0
:101BB4000C0000207C000020FEE7000070B50D4EF4
:101BC4000D4CA41BA4100025A54209D10B4E0C4CAE
:101BD40000F020F8A41BA4100025A54205D170BD77
:101BE40056F8253098470135EEE756F825309847E2
:101BF4000135F2E7481C0008481C0008481C00088E
:101C04004C1C000802440346934200D1704703F879
:101C1400011BF9E7F8B500BFF8BC08BC9E46704745
:0C1C2400F8B500BFF8BC08BC9E46704735
:101C3000000000000000000001020304060708097C
:081C4000F8EDFF7F0100000038
:041C4800B9010008D6
:041C4C0095010008F6
:0C1C500001000000100000000024F4005F
:0400000508001B6D67
:00000001FF
