:020000040800F2
:1000000000800120CD1200086D1200086F12000858
:100010007112000873120008751200080000000039
:10002000000000000000000000000000771200083F
:1000300079120008000000007B1200087D12000801
:100040001D1300081D1300081D1300081D130008D0
:100050001D1300081D1300081D1300081D130008C0
:100060001D1300081D1300081D1300081D130008B0
:100070001D1300081D1300081D1300081D130008A0
:100080001D1300081D1300081D13000800000000C8
:100090000000000000000000000000001D13000828
:1000A0001D1300081D1300081D1300081D13000870
:1000B0001D1300081D1300081D1300081D13000860
:1000C0001D1300081D1300081D1300081D13000850
:1000D0001D1300081D1300081D1300080000000078
:1000E0001D1300081D1300081D1300080000000068
:1000F0000000000000000000000000001D130008C8
:10010000000000001D1300081D1300081D13000847
:1001100000000000000000000000000000000000DF
:100120001D1300081D1300081D1300081D130008EF
:100130001D13000800000000000000000000000087
:100140000000000000000000000000001D13000877
:100150001D1300081D1300081D1300081D130008BF
:100160001D1300081D13000800000000000000001F
:10017000000000000000000000000000000000007F
:10018000000000001D130008000000000000000037
:040190001D13000833
:1001940010B5054C237833B9044B13B10448AFF3BD
:1001A40000800123237010BD0C000020000000001B
:1001B4007813000808B5034B1BB103490348AFF398
:1001C400008008BD00000000100000207813000823
:1001D40053B94AB9002908BF00281CBF4FF0FF31AA
:1001E4004FF0FF3000F07AB9ADF1080C6DE904CEA0
:1001F40000F006F8DDF804E0DDE9022304B07047FE
:100204002DE9F0478C460D460446089E002B51D13B
:100214008A4217466DD9B2FA82FEBEF1000F0BD0A6
:10022400CEF1200C01FA0EF520FA0CFC02FA0EF7BE
:100234004CEA050C00FA0EF44FEA174A250CBCFBF5
:10024400FAF81FFA87F90AFB18CC45EA0C4508FBB3
:1002540009F3AB420AD9ED1908F1FF3280F023818A
:10026400AB4240F22081A8F102083D44ED1AA4B249
:10027400B5FBFAF00AFB105544EA054400FB09F902
:10028400A14509D9E41900F1FF3380F00A81A145A1
:1002940040F2078102383C44A4EB090440EA0840D8
:1002A4000021002E61D024FA0EF400233460736020
:1002B400BDE8F0878B4207D9002E54D0002186E890
:1002C40021000846BDE8F087B3FA83F1002940F025
:1002D4008E80AB4202D3824200F2FA80841A65EB2C
:1002E40003050120AC46002E3FD086E81010BDE87F
:1002F400F08712B90127B7FBF2F7B7FA87FEBEF110
:10030400000F34D1EB1B3A0C1FFA87FC0121B3FB1D
:10031400F2F8250C02FB183345EA03450CFB08F3FD
:10032400AB4207D9ED1908F1FF3002D2AB4200F21B
:10033400D1808046ED1AA3B2B5FBF2F002FB105552
:1003440043EA05440CFB00FCA44507D9E41900F179
:10035400FF3302D2A44500F2B8801846A4EB0C0483
:1003640040EA08409DE731463046BDE8F087CEF1CB
:10037400200405FA0EF307FA0EF720FA04F83A0CF3
:1003840025FA04F448EA0308B4FBF2F14FEA1845ED
:1003940002FB11441FFA87FC45EA044501FB0CF3F8
:1003A400AB4200FA0EF409D9ED1901F1FF3080F0E7
:1003B4008A80AB4240F2878002393D44EB1A1FFA2F
:1003C40088F5B3FBF2F002FB103345EA034500FB6A
:1003D4000CF3AB4207D9ED1900F1FF386FD2AB42F1
:1003E4006DD902383D44EB1A40EA01418FE7C1F16F
:1003F400200722FA07F88B4005FA01F448EA0303C0
:1004040020FA07FE4FEA134CFD404EEA040EB5FBFA
:10041400FCF94FEA1E440CFB19551FFA83F844EA11
:10042400054509FB08F4AC4202FA01F200FA01FAAC
:1004340008D9ED1809F1FF3043D2AC4241D9A9F1F2
:1004440002091D442D1B1FFA8EFEB5FBFCF00CFBAC
:1004540010554EEA054400FB08F8A04507D9E418F6
:1004640000F1FF3529D2A04527D902381C4440EABF
:100474000940A4EB0804A0FB02894C45C6464D463E
:1004840015D312D056B1BAEB0E0364EB050404FA8B
:1004940007F7CB401F43CC40376074600021BDE8B0
:1004A400F0871846F8E69046E0E6C245EAD2B8EB93
:1004B400020E69EB03050138E4E72846D7E7404616
:1004C40091E78146BEE7014678E702383C4445E7B8
:1004D400084608E7A8F102083D442BE7704700BF2F
:1004E40038B50E4A0E4B054618784FF47A73B3FBB1
:1004F400F0F31068B0FBF3F000F096FA044658B934
:100504000F2D09D8024629464FF0FF3000F058FA63
:10051400044B20461D6038BD012038BD0800002072
:10052400000000200400002008B50B4B1A6842F4B8
:1005340000721A601A6842F480621A601A6842F4FF
:1005440080721A60032000F029FA0020FFF7C8FF28
:1005540000F03CFE002008BD003C0240034A044B6E
:1005640011681B780B441360704700BF28000020FB
:1005740000000020014B1868704700BF28000020CD
:1005840038B50446002800F09B80056C25B900F0BE
:1005940039FE656484F83C50236CDB0600F18E80E0
:1005A400236C23F4885323F0020343F002032364EF
:1005B400444B5A6822F440325A605A6861680A43CC
:1005C4005A60236821695A6822F480725A605A6812
:1005D40042EA01225A605A68A16822F040725A60C5
:1005E4005A680A435A609A68E16822F400629A6081
:1005F4009A680A439A603449A26A8A4252D0996836
:1006040021F07061996099680A439A609A68E16A76
:1006140022F040529A609A680A439A609A68217E4E
:1006240022F002029A609A6842EA41029A6094F8BF
:100634002020002A3ED05A68616A42F400625A605F
:100644005A6822F460425A605A68013942EA4132D7
:100654005A60DA6AE16922F47002DA62DA6A01390C
:1006640042EA0152DA629A6894F8301022F4007275
:100674009A609A6842EA41229A609A68616922F40F
:1006840080629A609A68002042EA81229A606064DB
:10069400236C23F0030343F001032364002384F851
:1006A4003C3038BD9A6822F070629A609A6822F0F1
:1006B4004052B2E75A6822F40062C9E70120EDE72C
:1006C400012038BD002301400100000F82B0002347
:1006D400019390F83C30012B4ED0012380F83C303C
:1006E40003689A68D10705D59A68D20714D4002004
:1006F40002B070479A68214942F001029A60204A88
:100704001268B2FBF1F202EB42020192019A002A52
:10071400EAD0019A013AF8E7026C22F4E06222F08E
:10072400010242F4807202645A68510541BF026CAE
:1007340022F4405242F480520264026C12F4805259
:100744001CBF426C22F006024264002280F83C2066
:100754006FF022021A600B4A5268D20608D19868D8
:1007640010F04050C3D19A6842F080429A60BFE7CB
:10077400054A9342BBD1F2E70220B9E740420F0099
:1007840008000020002301400020014090F83C3084
:10079400012B17D0012380F83C3003689A6822F0BB
:1007A40001029A609B68DB0707D4036C23F4885327
:1007B40023F0010343F001030364002380F83C3079
:1007C400184670470220704703689A6870B556054A
:1007D40004460D460BD59B68D80508D5236C43F019
:1007E40020032364002384F83C30012070BDFFF70C
:1007F400C1FE064623681A6892070CD56FF01202F0
:100804001A60226C42F4007222649A6812F0405F0B
:1008140013D0002070BD691CEDD045B9236C43F0A2
:1008240004032364002384F83C30032070BDFFF7E5
:10083400A1FE801B8542DDD2F0E7227E002AE8D1AA
:10084400DA6A12F4700F02D09B685B05E1D4236C62
:1008540023F480732364206C10F48050D9D1236C6A
:1008640043F00103236470BD0368D86C7047000033
:10087400F7B50023019390F83C30012B00F08380FE
:100884000D6804688A680123092D80F83C30AEB2F3
:100894002AD906EB4603E7681E3B4FF0070E0EFA13
:1008A40003FE27EA0E07E760E76802FA03F33B4317
:1008B400E3604A68062A4FEA820325D81344676B2B
:1008C400591F1F238B4027EA03036363626B06FAF5
:1008D40001F1114361632D4B9C4234D0002380F815
:1008E4003C30184603B0F0BD276905EB45034FF0D3
:1008F400070E0EFA03FE27EA0E072761276902FA9C
:1009040003F33B432361D4E70C2A0ED81344216B31
:10091400A3F123021F23934021EA03032363236BE0
:1009240006FA02F21A432263D5E71344E16A413B13
:100934001F229A4021EA0202E262E26A06FA03F105
:100944001143E162C7E7122D04D1114A536843F4FD
:1009540080035360A5F11003012BBFD80C4A5368E0
:10096400102D43F400035360B8D10A4B0A4A1B68A4
:10097400B3FBF2F20A2353430193019B002BADD046
:10098400019B013BF8E70220ACE700BF00200140D7
:10099400002301400800002040420F00074AD368AA
:1009A40023F4E0631B041B0C43F0BF63000243F415
:1009B400003300F4E0600343D360704700ED00E0CF
:1009C400174B30B5DC68C4F30224C4F10703251DBA
:1009D400042B28BF0423062D4FF0010505FA03F369
:1009E40003F1FF338CBF033C00241940A14005FAF6
:1009F40004F4013C2240002842EA01024FEA0212B8
:100A0400ADBF00F1604000F00F00064B00F56140FF
:100A1400B5BFD2B2D2B21A5480F8002330BD00BFA1
:100A240000ED00E014ED00E00138B0F1807F0AD25F
:100A3400064B074A5860F02182F823100020072251
:100A440098601A6070470120704700BF10E000E012
:100A540000ED00E02DE9F04F85B00B68DFF89C81D4
:100A6400644A01934FF001090023019C09FA03F73A
:100A740007EA0406B74240F0AD804C6824F0100A3F
:100A8400BAF1020F16D14FEAD30C00EB8C0C03F031
:100A9400070BDCF820504FEA8B0B4FF00F0E0EFAC9
:100AA4000BFE25EA0E0E0D6905FA0BF545EA0E0557
:100AB400CCF820504FEA430C0325D0F800B005FAD7
:100AC4000CF5ED4304F0030E0BEA050B0EFA0CFED5
:100AD4000AF1FF3A4EEA0B0EBAF1010F0095C0F885
:100AE40000E015D8D0F808E005EA0E0ECD6805FA46
:100AF4000CFA4AEA0E0EC0F808E0D0F804E02EEA38
:100B04000707C4F3001E0EFA03FE4EEA0707476008
:100B1400C768009D3D408F6807FA0CF73D43C560E8
:100B2400E50057D54FF0000BCDF80CB0D8F8447061
:100B3400314D47F48047C8F84470D8F8447007F43E
:100B440080470397039F23F0030707F1804707F5C6
:100B54009C3703F0030CD7F808A04FEA8C0C4FF035
:100B64000F0E0EFA0CFEA8422AEA0E0E39D005F535
:100B74008065A84237D005F58065A84235D005F5D3
:100B84008065A84233D005F58065A84214BF0725C7
:100B9400042505FA0CF545EA0E05BD601568F74312
:100BA40014F4803F0CBF3D4035431560556814F480
:100BB400003F0CBF3D4035435560956814F4801FD9
:100BC4000CBF3D4035439560D568A40254BF3D40F9
:100BD4003543D5600133102B7FF447AF05B0BDE832
:100BE400F08F5D46D5E70125D3E70225D1E703253C
:100BF400CFE700BF003C0140000002400038024043
:100C04002DE9F341044618B9012002B0BDE8F08192
:100C14000368DD0710D42368980758D423681A079B
:100C240000F19A8023685B0700F1B880A269002A6A
:100C340040F019810020E8E7A64B9A6802F00C0204
:100C4400042A07D09A6802F00C02082A0AD15B68C9
:100C5400590207D59F4B1B689A03DCD56368002BA8
:100C6400D9D1D1E763689B4DB3F5803F11D12B688F
:100C740043F480332B60FFF77DFC964D06462B68CA
:100C84009B03C8D4FFF776FC801B6428F7D90320A4
:100C9400BBE7B3F5A02F04D12B6843F480232B606A
:100CA400E5E72A6822F480322A602A6822F4802246
:100CB4002A60002BDFD1FFF75DFC06462B689F03FB
:100CC400A9D5FFF757FC801B6428F7D9DFE7814BD0
:100CD4009A6812F00C0F07D09A6802F00C02082AE6
:100CE40011D15B685E020ED47A4B1A68950702D55F
:100CF400E268012A88D11A68216922F0F80242EADE
:100D0400C1021A608AE7E268734BB2B101221A6029
:100D1400FFF730FC6F4D06462B68980707D52B6804
:100D2400226923F0F80343EAC2032B6076E7FFF756
:100D340021FC801B0228EFD9A9E71A60FFF71AFCEF
:100D4400644D06462B6899077FF568AFFFF712FCE0
:100D5400801B0228F6D99AE76269604B7AB10122B6
:100D64001A60FFF707FC5B4D06466B6F9F073FF564
:100D740059AFFFF7FFFB801B0228F6D987E71A60FB
:100D8400FFF7F8FB534D06466B6F98077FF54AAFA4
:100D9400FFF7F0FB801B0228F6D978E74D4B1A6C5D
:100DA40012F0805228D101921A6C42F080521A64D7
:100DB4001B6C03F080530193019B0126484D2B6863
:100DC400D9051BD5A368434D012B27D12B6F43F0C5
:100DD40001032B67FFF7CEFB3E4D074641F28838EF
:100DE4002B6F9B0739D5002E3FF420AF394A136C83
:100DF40023F08053136419E70026DFE72B6843F4DC
:100E040080732B60FFF7B6FB07462B68DA05D9D44D
:100E1400FFF7B0FBC01B0228F7D938E7052B04D134
:100E24002B6F43F004032B67D0E72A6F22F00102F3
:100E34002A672A6F22F004022A67002BCAD1FFF71F
:100E440099FB41F2883807462B6F9807CBD5FFF7FB
:100E540091FBC01B4045F7D919E7FFF78BFBC01B7B
:100E64004045BDD913E71B4DAB6803F00C03082BB9
:100E74003FF4CAAE1B4E0023022A336034D1FFF77D
:100E840079FB07462B6899011ED4226AE369134350
:100E9400626A43EA8213E26A43EA0263A26A0D4C7D
:100EA4005208013A43EA02436B6001233360FFF7BF
:100EB40061FB054623689A013FF5BCAEFFF75AFB78
:100EC400401B0228F6D9E2E6FFF754FBC01B0228B8
:100ED400D8D9DCE60038024000004742800E474281
:100EE4000070004060004742FFF744FB04462B6853
:100EF4009B017FF59FAEFFF73DFB001B0228F6D94F
:100F0400C5E600BF134908B58B6803F00C03042B36
:100F140003D0082B03D0104808BD104808BD4A6808
:100F24004B68496813F4800314BF0C480A48C1F3A2
:100F3400881118BF002302F03F02A1FB0001FFF754
:100F440047F9044B5B68C3F3014301335B00B0FB17
:100F5400F3F008BD003802400024F40040787D011D
:100F64002DE9F0410D46044610B90120BDE8F08199
:100F7400444B1A6802F00F028A4228D321688F0773
:100F84002DD4C80740D43F4B1A6802F00F02954293
:100F940066D3226851076CD4130707D53A4A2169EE
:100FA400936823F4604343EAC1039360FFF7AAFF05
:100FB400354B364A9B68C3F30313D35CD840344B98
:100FC40018600020FFF78CFA0020BDE8F081CAB257
:100FD4001A701B6803F00F039942C6D1CEE72A4B5F
:100FE40011F0040F1EBF9A6842F4E0529A600E0793
:100FF40042BF9A6842F460429A609A68A06822F0FC
:10100400F00202439A60BCE762681F4B012A1DD1BB
:101014001B6813F4003FA8D01B4EB36823F00303EE
:101024001343B360FFF7A6FA41F288380746B36862
:10103400626803F00C03B3EB820FA4D0FFF79AFAB3
:10104400C01B4045F3D90320BDE8F081911E01295E
:101054001B6802D813F0007FDDE713F0020FDAE714
:10106400EAB21A701B6803F00F039D427FF47DAF50
:101074008FE70549E0688B6823F4E05303438B60F2
:101084008AE700BF003C0240003802409013000889
:101094000800002030B595B03022002108A800F0E7
:1010A40061F90021142203A800F05CF900251C4B0F
:1010B40001951A6C42F080521A641B6C194A03F0B1
:1010C40080530193019B0295136823F4404343F436
:1010D4000043136013680F9503F440430293029B8B
:1010E40001230B9310230C930823109354230224FD
:1010F400119308A80423139308940E941294FFF7F1
:101104007FFD0F23039321464FF4805303A80494D7
:10111400059506930795FFF723FF15B030BD00BF73
:101124000038024000700040BFB5FFF7FDF900250C
:10113400FFF7B0FF204B01951A6B204C42F00102DF
:101144001A631B6B102703F00103294601933A46E7
:1011540002A8019B00F006F9194AA5604FF48033F8
:1011640084E80C000126174B25612046257684F877
:101174002050E562A362E56084F83050E661666160
:10118400FFF7FEF902A92046049502970396FFF79C
:101194006FFB0D4D2046FFF799FA4FF47A71204604
:1011A400FFF712FB18B92046FFF75EFB28602046C4
:1011B400FFF7ECFAEEE700BF003802402C000020F5
:1011C400002001400100000F7400002082B00C4B8D
:1011D400002100915A6C42F480425A645A6C02F421
:1011E40080420092009A01911A6C42F080521A6473
:1011F4001B6C03F080530193019B02B0704700BF46
:101204000038024010B5044688B01422002103A817
:1012140000F0A8F82268124B9A421ED103F58C33D1
:10122400002101915A6C0F4842F480725A645A6C3E
:1012340002F480720192019A02911A6B42F0010247
:101244001A631B6B03F001030293029B01230393B4
:1012540003A903230493FFF7FDFB08B010BD00BFEF
:1012640000200140000002407047FEE7FEE7FEE771
:10127400FEE7704770477047FFF770B90F49D1F820
:10128400883043F47003C1F888300D4B1A6800208D
:1012940042F001021A6098601A6822F0847222F403
:1012A40080321A60074A5A601A6822F480221A604F
:1012B400D8604FF000638B60704700BF00ED00E022
:1012C4000038024010300024DFF834D0002103E05D
:1012D4000C4B5B58435004310B480C4B42189A4258
:1012E400F6D30B4A02E0002342F8043B094B9A422E
:1012F400F9D3FFF7C3FF00F011F8FFF715FF7047AC
:1013040000800120B0130008000000200C00002021
:101314000C00002078000020FEE7000070B50D4EA0
:101324000D4CA41BA4100025A54209D10B4E0C4C56
:1013340000F020F8A41BA4100025A54205D170BD1F
:1013440056F8253098470135EEE756F8253098478A
:101354000135F2E7A8130008A8130008A813000831
:10136400AC13000802440346934200D1704703F8CB
:10137400011BF9E7F8B500BFF8BC08BC9E467047EE
:0C138400F8B500BFF8BC08BC9E467047DE
:101390000000000000000000010203040607080925
:0813A00064EEFF7F0100000074
:0413A800B90100087F
:0413AC00950100089F
:0C13B00001000000100000000024F40008
:04000005080012CD10
:00000001FF
